:060000000A128A11142906
:10000800F000030EF1000B18DE220B100C18D222A0
:100018000C100B194323710E8300F00E700E0900AB
:100200008A010A140F3982073F3406345B344F34B5
:1002100066346D347D3407347F346F3477347C3406
:1002200039345E34793471340317831688018901B7
:10023000031383160510851005118511051285120B
:1002400007108710071187110712871207138713EA
:1002500008108810081188110812881208138813D2
:100260000910891009110614861406158611061244
:10027000861206138613632176217D2183210A309D
:10028000F400F500F6000B30F8001530F9001F30CF
:10029000FA00031383160C14031383120C100313B8
:1002A00083121014901010169016031383128501F8
:1002B0008601870188018901031383122C225222AF
:1002C00077228B215E2903138316811381128111FA
:1002D00001158114011403138316151495141515B3
:1002E0009511151295121513951308000313831613
:1002F0000F138F160F120F14080003138316161412
:10030000961416150800031383128B170B108B1508
:100310008B160B1108000A30780203190515031912
:1003200005100319851503190914063078020319FD
:100330000511031905150319051105307802031974
:100340000515031905110319051504307802031961
:100350000511031905150319051103307802031956
:1003600085140030780203198510031910220A3011
:100370007902031985160319051403198511031948
:100380000914063079020319851203198516031919
:100390008512053079020319851603198512031990
:1003A000851604307902031985120319851603197D
:1003B00085120330790203190516003079020319FA
:1003C0000512031910220A307A02031909150319BC
:1003D0000514031985150319091006307A0203194B
:1003E0000911031909150319091105307A020319B6
:1003F0000915031909110319091504307A020319A3
:100400000911031909150319091103307A02031997
:10041000891400307A020319891003191022080088
:100420000030780203192322F80005140030790205
:1004300003192622F900851500307A0203192922B2
:10044000FA0009140800F9087A070800F8087A0782
:100450000800F9087807080073183A2AF318402AA8
:100460007319462AF3194C2A8615061286120613AA
:1004700086130800861106168612061386130800D6
:1004800086110612861606138613080086110612B8
:1004900086120617861308008611061286120613A6
:1004A0008617080021080021A40020080021A300CD
:1004B00026080021A90025080021A8002B080021FA
:1004C000AE002A080021AD0030080021B3002F083B
:1004D0000021B20035080021B80034080021B7001F
:1004E0003A080021BD0039080021BC000800A10124
:1004F000A001A2017408A2000A30A2020318A10AF6
:1005000003187C2A0A30A2072208A000A601A50130
:10051000A7017508A7000A30A7020318A60A031846
:100520008B2A0A30A7072708A500AB01AA01AC0156
:100530007608AC000A30AC020318AB0A03189A2AFA
:100540000A30AC072C08AA00B001AF01B10178084D
:10055000B1000A30B1020318B00A0318A92A0A3000
:10056000B1073108AF00B501B401B6017908B60092
:100570000A30B6020318B50A0318B82A0A30B607BB
:100580003608B400BA01B901BB017A08BB000A30D1
:10059000BB020318BA0A0318C72A0A30BB073B0874
:1005A000B900080003138312E1308F000313831294
:1005B0007C308E00F803F903FA0308007318E92A67
:1005C000F318F22A7319FB2AF319042B061C73146F
:1005D0000800861C0723061D1023061C7310061C2A
:1005E000F3140800861C1923061D2223061CF31091
:1005F000061C73150800861C2B23061D3423061CBD
:100600007311061CF3150800061CF3010800F40A18
:10061000031115307402031D0F2B0A30F40008007B
:10062000F403031109307402031D182B1430F40075
:100630000800F50A031115307502031D212B0A303D
:10064000F5000800F503031109307502031D2A2B7C
:100650001430F5000800F60A031115307602031D68
:10066000332B0A30F6000800F60303110930760236
:10067000031D3C2B1430F600080003138312FF30D7
:1006800081000B1108003D2388017218572BF218C6
:100690005B2B72195F2BF219632B721A672BF21AFC
:1006A0006B2B721B772B330887000814832B3208BF
:1006B00087008814862B380887000815892B37088F
:1006C000870088158C2B3D08870008168F2B3C0867
:1006D00087008816922B8619952B061A9A23861A5C
:1006E000A023061BA623861B952B0817952B86197E
:1006F000982B061A9D23861AA323061BA923861B63
:10070000982B8817982B0130F20608000330F20668
:1007100008000630F20608000C30F2060800183017
:10072000F20608003030F20608006030F2060800D9
:10073000F201080024088700080023088700080049
:100740002908870008002808870008002E0887006D
:0807500008002D0887000800D5
:04400E00D430FF3F6C
:00000001FF
