:060000000A128A11142906
:10000800F000030EF1000B18E8220B100C18DC228C
:100018000C100B197523710E8300F00E700E090079
:100200008A010A140F3982073F3406345B344F34B5
:1002100066346D347D3407347F346F3477347C3406
:1002200039345E34793471340317831688018901B7
:10023000031383160510851005118511051285120B
:1002400007108710071187110712871207138713EA
:1002500008108810081188110812881208138813D2
:100260000910891009110614861406158611061244
:10027000861206138613632176217D2183210A309D
:10028000F400F500F6000A30F7001430F8001E30D4
:10029000F900031383160C14031383120C100313B9
:1002A00083121014901010169016031383128501F8
:1002B00086018701880189010313831236225C229B
:1002C00081228B215E2903138316811381128111F0
:1002D00001158114011403138316151495141515B3
:1002E0009511151295121513951308000313831613
:1002F0000F138F160F120F14080003138316161412
:10030000961416150800031383128B170B108B1508
:100310008B160B1108000A30770203190515031913
:100320000510031985100319851503190512031902
:1003300085120319091103198910031909100630D0
:100340007702031905110319051503190511053065
:100350007702031905150319051103190515043052
:100360007702031905110319051503190511033047
:1003700077020319851400307702031985100319D9
:100380001A220A3078020319851603190514031975
:10039000851103190914063078020319851203190F
:1003A000851603198512053078020319851603197D
:1003B0008512031985160430780203198512031972
:1003C00085160319851203307802031905160030CB
:1003D00078020319051203191A220A307902031947
:1003E0000915031905140319851503190910063099
:1003F00079020319091103190915031909110530A7
:100400007902031909150319091103190915043093
:100410007902031909110319091503190911033088
:10042000790203198914003079020319891003191C
:100430001A2208000030770203192D22F700051454
:100440000030780203193022F80085150030790257
:1004500003193322F9000914080078087907080005
:100460007708790708007808770708007318442A86
:10047000F3184A2A7319502AF319562A86150612B8
:1004800086120613861308008611061686120613B6
:1004900086130800861106128616061386130800B6
:1004A0008611061286120617861308008611061298
:1004B000861206138617080021080021A4002008D0
:1004C0000021A30026080021A90025080021A8007A
:1004D0002B080021AE002A080021AD0030080021C1
:1004E000B3002F080021B20035080021B8003408FD
:1004F0000021B7003A080021BD0039080021BC00E6
:100500000800A101A001A2017408A2000A30A20201
:100510000318A10A0318862A0A30A2072208A0009D
:10052000A601A501A7017508A7000A30A7020318B4
:10053000A60A0318952A0A30A7072708A500AB01C9
:10054000AA01AC017608AC000A30AC020318AB0A71
:100550000318A42A0A30AC072C08AA00B001AF0186
:10056000B1017708B1000A30B1020318B00A0318CC
:10057000B32A0A30B1073108AF00B501B401B601A2
:100580007808B6000A30B6020318B50A0318C22A62
:100590000A30B6073608B400BA01B901BB017908C0
:1005A000BB000A30BB020318BA0A0318D12A0A306A
:1005B000BB073B08B900080003138312E1308F002A
:1005C000031383127C308E00F703F803F90308004D
:1005D0007318F32AF318FC2A7319052BF3190E2B41
:1005E000061C73140800861C1823061D2123061CF4
:1005F0007310061CF3140800861C2A23061D3323DF
:10060000061CF310061C73150800861C3C23061DEF
:100610004523061C7311061CF31508003E10861CAA
:100620004E23061D5823061C6523061CF3010800F3
:10063000F40A031115307402031D202B0A30F40054
:100640000800F403031109307402031D292B143030
:10065000F4000800F50A031115307502031D322B52
:100660000A30F5000800F503031109307502031D77
:100670003B2B1430F5000800F60A03111530760202
:10068000031D442B0A30F6000800F603031109305D
:100690007602031D4D2B1430F60008005D2374080C
:1006A000F70075087707F80076087807F900080062
:1006B0000A30F400F500F6000800F701F801F9012E
:1006C0003E140514851509140800F701F801F90115
:1006D0000A30F7001430F8001E30F9000800031348
:1006E0008312FF3081000B1108006F2388017218FC
:1006F0008B2BF218912B7219972BF2199D2B721AD2
:10070000A32BF21AA92B721BB52B3E180800330835
:1007100087000814C12B3E1808003208870088148F
:10072000C42B3E180800380887000815C72B3E1850
:100730000800370887008815CA2B3E1808003D08B6
:1007400087000816CD2B3E1808003C088700881645
:10075000D02B8619D32B061AD823861ADE23061B24
:10076000E423861BD32B0817D32B8619D62B061A06
:10077000DB23861AE123061BE723861BD62B88176B
:10078000D62B0130F20608000330F20608000630CE
:10079000F20608000C30F20608001830F2060800D5
:1007A0003030F20608006030F2060800F20108005E
:1007B000240887000800230887000800290887000C
:1007C00008002808870008002E08870008002D0868
:0407D0008700080096
:04400E00D430FF3F6C
:00000001FF
