:060000000A128A11142906
:10000800F000030EF1000B18DF210B100B1944222E
:0A001800710E8300F00E700E090057
:100200008A010A140F3982073F3406345B344F34B5
:1002100066346D347D3407347F346F3477347C3406
:1002200039345E34793471340317831688018901B7
:10023000031383160510851005118511051285120B
:1002400007108710071187110712871207138713EA
:1002500008108810081188110812881208138813D2
:1002600009108910891106148614061586110612C4
:10027000861206138613502163216A2170210A30E9
:10028000F400F500F600031383128501860187014F
:10029000880189010313831278219E21B1214C2901
:1002A0000313831681138112811101158114011426
:1002B000031383161514951415159511151295121F
:1002C000151395130800031383160F138F160F12BF
:1002D0000F1408000313831616149614161508003D
:1002E000031383128B170B108B158B160B11080041
:1002F00073188629F3188C2973199229F3199829F0
:100300008615061286120613861308008611061635
:100310008612061386130800861106128616061327
:100320008613080086110612861206178613080027
:10033000861106128612061386170800210800216E
:10034000A40020080021A30026080021A9002508F8
:100350000021A8002B080021AE002A080021AD00D2
:100360000800A101A001A2017408A2000A30A202A3
:100370000318A10A0318B6290A30A2072208A00010
:10038000A601A501A7017508A7000A30A702031856
:10039000A60A0318C5290A30A7072708A500AB013C
:1003A000AA01AC017608AC000A30AC020318AB0A13
:1003B0000318D4290A30AC072C08AA0008007318C7
:1003C000EA29F318F3297319FC29F319052A061CE5
:1003D00073140800861C0822061D1122061C7310C7
:1003E000061CF3140800861C1A22061D2322061C74
:1003F000F310061C73150800861C2C22061D3522DE
:10040000061C7311061CF3150800061CF3010800F6
:10041000F40A031115307402031D102A0A30F40087
:100420000800F403031109307402031D192A143063
:10043000F4000800F50A031115307502031D222A85
:100440000A30F5000800F503031109307502031D99
:100450002B2A1430F5000800F60A03111530760235
:10046000031D342A0A30F6000800F6030311093090
:100470007602031D3D2A1430F60008000313831290
:10048000FF3081000B1108003E2288017218562AA5
:10049000F218582A72195A2AF2195C2A721A5E2A1C
:1004A000F21A602A721B6C2A0814782A88147B2A94
:1004B00008157E2A8815812A0816842A8816872A14
:1004C00086190800061A8F22861A9522061B9B227F
:1004D000861B080008178A2A86190800061A922225
:1004E000861A9822061B9E22861B080088178D2AD2
:1004F0000130F20608000330F20608000630F2066A
:1005000008000C30F20608001830F20608003030FF
:10051000F20608006030F2060800F2010800240824
:1005200087000800230887000800290887000800C2
:100530002808870008002E08870008002D0887007B
:020540000800B1
:04400E00D430FF3F6C
:00000001FF
