:060000000A128A11142906
:10000800F000030EF1000B1898210B19CB21710E8B
:080018008300F00E700E0900D8
:100200008A010A140F3982073F3406345B344F34B5
:1002100066346D347D3407347F346F3477347C3406
:1002200039345E34793471340317831688018901B7
:10023000031383160510851005118511051285120B
:1002400007108710071187110712871207138713EA
:1002500008108810081188110812881208138813D2
:1002600009108910891106148614061586110612C4
:100270008612061386134A215D2164216A21031325
:100280008312850186018701880189010313831286
:1002900072214829031383168113811281110115DC
:1002A0008114011403138316151495141515951153
:1002B00015129512151395130800031383160F13C7
:1002C0008F160F120F1408000313831616149614BA
:1002D00016150800031383128B170B108B158B1642
:1002E0000B11080073188029F318862973198C29BB
:1002F000F319922986150612861206138613080032
:100300008611061686120613861308008611061239
:100310008616061386130800861106128612061723
:100320008613080086110612861206138617080027
:100330007318A429F318AD297319B629F319BF2925
:10034000061C73140B100800861CF40A061DF40327
:10035000061C7310F3140B100800861CF50A061D0A
:10036000F603061CF31073150B100800861CF60A22
:10037000061DF603061C7311F3150B1008008514F7
:100380000510061CF3010B10080003138312FF3045
:1003900081000B110800C52188017218DD29F218AF
:1003A000DF297219E129F219E329721AE529F21AF3
:1003B000E729721BEB290814EF298814F229081584
:1003C000F5298815F8290816FB298816FE2924081E
:1003D00087000817012A230887008817042A01309C
:1003E000F20608000330F20608000630F2060800A4
:1003F0000C30F20608001830F20608003030F20621
:0C04000008006030F2060800F20108005D
:04400E00D430FF3F6C
:00000001FF
