:060000000A128A11142906
:10000800F000030EF1000B197521710E8300F00E3C
:04001800700E09005D
:100200008A010A140F3982073F3406345B344F34B5
:1002100066346D347D3407347F346F3477347C3406
:1002200039345E34793471340317831688018901B7
:10023000031383160510851005118511051285120B
:1002400007108710071187110712871207138713EA
:1002500008108810081188110812881208138813D2
:1002600009108910891106148614061586120613C2
:10027000861347215A2161216721031383128501C7
:10028000860187018801890103138312462903131C
:100290008316811381128111011581140114031336
:1002A000831615149514951595111512951215139D
:1002B00095130800031383160F138F160F120F14D4
:1002C000080003138316161496141615080003135A
:1002D00083128B170B108B158B160B110800031351
:1002E0008312FF3081000B1108006F218801721802
:1002F0008729F218892972198D29F2198F29721A02
:100300009129F21A9329721B9529081497298814A8
:100310009A295B30870008159D298815A0290816A1
:10032000A3298816A6290817A9298817AC290130FE
:10033000F20608000330F20608000630F206080054
:100340000C30F20608001830F20608003030F206D1
:0C03500008006030F2060800F20108000E
:04400E00D430FF3F6C
:00000001FF
