:060000000A128A11142906
:10000800F000030EF1000B18DB210B100B190A226C
:0A001800710E8300F00E700E090057
:100200008A010A140F3982073F3406345B344F34B5
:1002100066346D347D3407347F346F3477347C3406
:1002200039345E34793471340317831688018901B7
:10023000031383160510851005118511051285120B
:1002400007108710071187110712871207138713EA
:1002500008108810081188110812881208138813D2
:1002600009108910891106148614061586110612C4
:100270008612061386134C215F2166216C2103131D
:100280008312850186018701880189010313831286
:1002900074219A21AD2148290313831681138112F9
:1002A000811101158114011403138316151495147B
:1002B00015159511151295121513951308000313B2
:1002C00083160F138F160F120F14080003138316D3
:1002D0001614961416150800031383128B170B10AF
:1002E0008B158B160B11080073188229F3188829B7
:1002F00073198E29F319942986150612861206138E
:100300008613080086110616861206138613080047
:100310008611061286160613861308008611061229
:100320008612061786130800861106128612061317
:100330008617080021080021A40020080021A3003E
:1003400026080021A90025080021A8002B0800216B
:10035000AE002A080021AD000800A101A001A20101
:100360007408A2000A30A2020318A10A0318B229D5
:100370000A30A2072208A000A601A501A70175085E
:10038000A7000A30A7020318A60A0318C1290A30D9
:10039000A7072708A500AB01AA01AC017608AC00AD
:1003A0000A30AC020318AB0A0318D0290A30AC0794
:1003B0002C08AA0008007318E629F318EF2973190E
:1003C000F829F319012A061C73140800861CF40A84
:1003D000061DF403061C7310061CF3140800861C8B
:1003E000F50A061DF503061CF310061C731508001C
:1003F000861CF60A061DF603061C7311061CF3156F
:100400000800061CF301080003138312FF3081006B
:100410000B1108000422880172181C2AF2181E2AE7
:100420007219202AF219222A721A242AF21A262A6A
:10043000721B2C2A0814322A8814352A0815382AE7
:1004400088153B2A08163E2A8816412A8619080074
:100450002E0887000817442A861908002D088700EF
:100460008817472A0130F20608000330F206080018
:100470000630F20608000C30F20608001830F206CA
:1004800008003030F20608006030F2060800F20181
:02049000080062
:04400E00D430FF3F6C
:00000001FF
